:100000000C9434000C9451000C9451000C94510049
:100010000C9451000C9451000C9451000C9451001C
:100020000C9451000C9451000C9451000C9451000C
:100030000C9451000C9451000C9451000C945100FC
:100040000C9451000C9451000C9451000C94220219
:100050000C9451000C9451000C9451000C945100DC
:100060000C9451000C94510011241FBECFEFD8E026
:10007000DEBFCDBF11E0A0E0B1E0ECE5FCE002C0E6
:1000800005900D92A836B107D9F721E0A8E6B1E0B6
:1000900001C01D92A738B207E1F70E946F020C94CD
:1000A0002C060C9400009DEC899F912D11249695AF
:1000B00096959695392F330F232F220F220F230F5A
:1000C000821B20E1929F800D11240895982F929514
:1000D0009F70990F292F220F220F920F8F70890F77
:1000E00008950F931F9300EA16E821E030E040E006
:1000F00054E264EF70E080E00E94B1011F910F9123
:100100000895CF93DF93D82FC62F80E00E94DB01A4
:1001100080ED0E94FE018D2F0E94FE01CF3F31F045
:100120008C2F0E94FE0182E00E94DB01DF91CF91C3
:100130000895CF93DF93EC0180E00E94DB0181ED15
:100140000E94FE0160E0CE010E94040282E00E9453
:10015000DB01DF91CF9108950F931F93CF93DF932E
:10016000182FD62F842F022F0E945300C82F8D2FB7
:100170000E945300D82F812F0E945300182F80E037
:100180000E94DB0180ED0E94FE0183E00E94FE01DF
:10019000802F0E94FE01812F0E94FE018D2F0E9460
:1001A000FE018C2F0E94FE0182E00E94DB01DF91A4
:1001B000CF911F910F9108951F93CF93DF93C82F75
:1001C000D62F842F0E945300182F8D2F0E9453008A
:1001D000D82F8C2F0E945300C82F80E00E94DB0193
:1001E00080ED0E94FE0180E00E94FE01812F0E94AE
:1001F000FE018D2F0E94FE018C2F0E94FE0182E0E5
:100200000E94DB01DF91CF911F91089590E8899FB3
:10021000B001112487E00E9481000895682F606179
:1002200087E00E94810008951F93CF93DF931F9270
:10023000CDB7DEB7182F6FEF80E00E948100CE01AE
:1002400001960E949900112321F089818F7789837B
:1002500003C0898180688983698180E00E94810070
:100260000F90DF91CF911F910895CF92DF92EF927F
:10027000FF920F931F93CF93DF93EC018B017A01D1
:1002800069016FEF83E00E94810081E00E94DB0141
:1002900081ED0E94FE0161E0C6010E94040261E05E
:1002A000C7010E94040261E0C8010E94040260E0EC
:1002B000CE010E94040282E00E94DB01F7018081EE
:1002C0000E946600F7018083F80180810E94660029
:1002D000F801808388810E9466008883DF91CF9136
:1002E0001F910F91FF90EF90DF90CF900895EF92C4
:1002F000FF920F931F93CF93DF93EC018B017A0151
:100300006FEF80E00E94810081E00E94DB0181EDBF
:100310000E94FE0161E0C7010E94040261E0C80181
:100320000E94040260E0CE010E94040282E00E946A
:10033000DB01F70180818F770E946600F7018083DF
:10034000F80180810E946600F801808388810E9404
:1003500066008883DF91CF911F910F91FF90EF90FE
:1003600008950F931F93CF93C82FCB01BA01A90112
:1003700098010E942003DA01C9014097A109B1093F
:10038000AC01BD017695679557954795DB01CA018C
:100390000197A109B1098F3F9105A105B10530F47D
:1003A0004093B800C093B90081E001C080E0CF91D4
:1003B0001F910F910895823059F030F0843081F010
:1003C00058F0853081F408C094EA9093BC000BC0CB
:1003D00084E98093BC000EC094E89093BC0003C0F5
:1003E00094EC9093BC00823029F0ECEBF0E080813B
:1003F0008823ECF78091B900887F08958093BB0033
:1004000083E00E94DB010895CF93DF93EC0161113B
:1004100002C085E001C084E00E94DB019091BB0036
:100420009883DF91CF9108951092C00088E0809367
:10043000C10086E08093C2001092C50087E68093D9
:10044000C40008951F920F920FB60F9211248F933C
:100450009F93EF93FF9380916901E0916A01F0917E
:100460006B01E80FF11D80818093C60080916901C6
:100470008F5F8093690190916801891306C0E1EC58
:10048000F0E080818F7D8083F894FF91EF919F91C0
:100490008F910F900FBE0F901F901895E0ECF0E039
:1004A000908195FFFDCF8093C60008950F931F9311
:1004B000CF93DF93662371F0EC016150062F10E0BB
:1004C0000F5F1F4F080F191F89910E944E02C0171E
:1004D000D107D1F7DF91CF911F910F910895E1E6F8
:1004E000F0E080E8808310820E9414020E94710074
:1004F00081E00E9406012FEF87EA91E621508040BB
:100500009040E1F700C0000080E00E9406012FEF5C
:1005100087EA91E6215080409040E1F700C000005A
:1005200080E00E940E0127E048E16CE08CE10E942F
:10053000AC0040E26DE28DE00E94DC0080E00E94B1
:10054000140100E010E00F2EFEE0CF2EF1E0DF2ED0
:10055000F02DC2E7D1E00F2EFDE1EF2EF1E0FF2EEE
:10056000F02D4DE651E061E771E086E891E00E94F0
:10057000770180916D011F928F93809171011F927D
:100580008F93809186011F928F93DF92CF92DF939A
:10059000CF930E94420368E0CE010E9456028DE094
:1005A0000E944E0220E731E04FE651E06CE671E038
:1005B0008EE691E00E943501E0917001F0E0EE0FCF
:1005C000FF1FE250FF4F81818F9380818F93809135
:1005D0006E011F928F9380916C011F928F93809177
:1005E0006F011F928F93FF92EF92DF93CF930E9440
:1005F000420364E1CE010E9456028DE00E944E0249
:100600008DB79EB746960FB6F8949EBF0FBE8DBFAE
:100610000A3011051CF40F5F1F4F08C00A30110586
:1006200029F481E00E9414010BE010E09FEF29E61D
:1006300088E1915020408040E1F700C0000091CF58
:10064000A1E21A2EAA1BBB1BFD010DC0AA1FBB1FD6
:10065000EE1FFF1FA217B307E407F50720F0A21B48
:10066000B30BE40BF50B661F771F881F991F1A94B5
:1006700069F760957095809590959B01AC01BD01DF
:10068000CF010895AEE0B0E0E8E4F3E00C94030697
:100690000D891E8986E08C831A8309838FEF9FE77B
:1006A0009E838D83AE01475E5F4F6F89788DCE014B
:1006B00001960E946403EF81F885E00FF11F10821C
:1006C0002E96E4E00C941F06ABE0B0E0EAE6F3E01F
:1006D0000C94F5056C017B018A01FC0117821682DE
:1006E000838181FFCCC1CE0101963C01F60193814B
:1006F000F70193FD859193FF81917F01882309F490
:10070000BAC1853239F493FD859193FF81917F01C0
:10071000853229F4B60190E00E945B05E7CF912C69
:10072000212C312CFFE1F315D8F08B3279F038F41D
:10073000803279F08332A1F4232D20611DC08D32E7
:1007400061F0803369F4232D216016C0832D82600F
:10075000382EE32DE4603E2E2AC0F32DF8601DC034
:1007600037FC2DC020ED280F2A3040F08E32B9F42E
:1007700036FC81C1232D2064322E19C036FE06C0FE
:100780008AE0989E200D1124922E11C0EAE02E9E40
:10079000200D1124222EF32DF0623F2E08C08C363E
:1007A00021F4832D8068382E02C0883641F4F70189
:1007B00093FD859193FF81917F018111B3CF982F94
:1007C0009F7D9554933028F40C5F1F4F9FE39983CE
:1007D0000DC0833631F0833771F0833509F059C08D
:1007E00021C0F801808189830E5F1F4F8824839484
:1007F000912C530113C02801F2E04F0E511CF80157
:10080000A080B18036FE03C0692D70E002C06FEF9A
:100810007FEFC5010E9450054C018201F32DFF7747
:100820003F2E16C0280122E0420E511CF801A08084
:10083000B18036FE03C0692D70E002C06FEF7FEF1C
:10084000C5010E9445054C01F32DF0683F2E820141
:1008500033FC1BC0822D90E088169906B0F4B601D7
:1008600080E290E00E945B052A94F4CFF50137FC0A
:10087000859137FE81915F01B60190E00E945B0592
:1008800021102A9421E0821A91088114910471F7B1
:10089000E8C0843611F0893641F5F80137FE07C00B
:1008A00060817181828193810C5F1F4F08C06081DC
:1008B0007181072E000C880B990B0E5F1F4FF32DD3
:1008C000FF763F2E97FF09C09095809570956195B2
:1008D0007F4F8F4F9F4FF0683F2E2AE030E0A301FB
:1008E0000E949705882E861845C0853731F4232D40
:1008F0002F7EB22E2AE030E025C0932D997FB92EAD
:100900008F36C1F018F4883579F0B5C0803719F00A
:10091000883721F0B0C0E92FE061BE2EB4FE0DC0D3
:10092000FB2DF460BF2E09C034FE0AC0292F2660BB
:10093000B22E06C028E030E005C020E130E002C061
:1009400020E132E0F801B7FE07C060817181828149
:1009500093810C5F1F4F06C06081718180E090E041
:100960000E5F1F4FA3010E949705882E8618FB2D4E
:10097000FF773F2E36FE0DC0232D2E7FA22E891429
:1009800058F434FE0BC032FC09C0832D8E7EA82E95
:1009900005C0B82CA32C03C0B82C01C0B92CA4FEF0
:1009A0000FC0FE01E80DF11D8081803321F49A2DE6
:1009B000997EA92E09C0A2FE06C0B394B39404C0C8
:1009C0008A2D867809F0B394A3FC11C0A0FE06C05E
:1009D000B21488F4280C922C9B180EC0B21460F448
:1009E000B60180E290E00E945B05B394F7CFB214A9
:1009F00018F42B1802C0982C212CA4FE10C0B601AC
:100A000080E390E00E945B05A2FE17C0A1FC03C03A
:100A100088E790E002C088E590E0B6010CC08A2D1E
:100A2000867859F0A1FE02C08BE201C080E2A7FCEB
:100A30008DE2B60190E00E945B05891438F4B6019E
:100A400080E390E00E945B059A94F7CF8A94F301CB
:100A5000E80DF11D8081B60190E00E945B058110D8
:100A6000F5CF222009F442CEB60180E290E00E9448
:100A70005B052A94F6CFF6018681978102C08FEF3D
:100A80009FEF2B96E2E10C941106FC01059061505A
:100A900070400110D8F7809590958E0F9F1F089594
:100AA000FC016150704001900110D8F7809590953D
:100AB0008E0F9F1F08950F931F93CF93DF93FB011A
:100AC000238121FD03C08FEF9FEF2CC022FF16C0B2
:100AD00046815781248135814217530744F4A08110
:100AE000B1819D012F5F3F4F318320838C932681FD
:100AF00037812F5F3F4F3783268314C08B01EC0172
:100B0000FB010084F185E02D0995892BE1F6D801E0
:100B100016968D919C911797019617969C938E939C
:100B20001697CE01DF91CF911F910F910895FA0191
:100B3000AA27283051F1203181F1E8946F936E7F1C
:100B40006E5F7F4F8F4F9F4FAF4FB1E03ED0B4E00D
:100B50003CD0670F781F891F9A1FA11D680F791F4E
:100B60008A1F911DA11D6A0F711D811D911DA11D5F
:100B700020D009F468943F912AE0269F112430196F
:100B8000305D3193DEF6CF010895462F4770405D0A
:100B90004193B3E00FD0C9F7F6CF462F4F70405DB9
:100BA0004A3318F0495D31FD4052419302D0A9F714
:100BB000EACFB4E0A6959795879577956795BA950E
:100BC000C9F700976105710508959B01AC010A2ED4
:100BD00006945795479537952795BA95C9F7620FAB
:100BE000731F841F951FA01D08952F923F924F924F
:100BF0005F926F927F928F929F92AF92BF92CF92AD
:100C0000DF92EF92FF920F931F93CF93DF93CDB7B5
:100C1000DEB7CA1BDB0B0FB6F894DEBF0FBECDBF2D
:100C200009942A88398848885F846E847D848C84FE
:100C30009B84AA84B984C884DF80EE80FD800C8107
:100C40001B81AA81B981CE0FD11D0FB6F894DEBFEA
:0C0C50000FBECDBFED010895F894FFCF5A
:100C5C002E0135013C0144014E0157015E01253046
:100C6C0032753A253032753A2530327500253032DE
:100C7C00752E253032752E25752025732000537561
:100C8C006E646179004D6F6E6461790054756573A3
:100C9C00646179005765646E6573646179005468AA
:100CAC00757273646179004672696461790053618D
:080CBC00747572646179000097
:00000001FF
