:100000000C9434000C9451000C9451000C94510049
:100010000C9451000C9451000C9451000C9451001C
:100020000C9451000C9451000C9451000C9451000C
:100030000C9451000C9451000C9451000C945100FC
:100040000C9451000C9451000C9451000C949A02A1
:100050000C9451000C9451000C9451000C945100DC
:100060000C9451000C94510011241FBECFEFD8E026
:10007000DEBFCDBF11E0A0E0B1E0EAE2FEE002C0E9
:1000800005900D92A239B107D9F721E0A2E9B1E0BC
:1000900001C01D92AA3AB207E1F70E94E7020C9450
:1000A00013070C9400009DEC899F912D11249695C7
:1000B00096959695392F330F232F220F220F230F5A
:1000C000821B20E1929F800D11240895982F929514
:1000D0009F70990F292F220F220F920F8F70890F77
:1000E000089520EA36E841E050E060E074E284EFF1
:1000F00090E00E94F3010895CF93DF93D82FC62F8D
:1001000080E00E94530280ED0E9476028D2F0E94B3
:100110007602CF3F31F08C2F0E94760282E00E945F
:100120005302DF91CF910895CF93DF93EC0180E0EC
:100130000E94530281ED0E94760260E0CE010E948F
:100140007C0282E00E945302DF91CF91089590E8F3
:10015000899FB001112487E00E947C000895682FD8
:10016000606187E00E947C0008951F93CF93DF9326
:100170001F92CDB7DEB7182F6FEF80E00E947C0092
:10018000CE0101960E949400113021F489818F776D
:10019000898303C0898180688983698180E00E94A6
:1001A0007C000F90DF91CF911F9108950F931F93C3
:1001B000CF93DF93162FD72F092F0E945300C82FFC
:1001C0008D2F0E945300D82F812F0E945300182F8B
:1001D00080E00E94530280ED0E94760283E00E943C
:1001E0007602802F0E947602812F0E9476028D2F48
:1001F0000E9476028C2F0E94760282E00E945302B7
:10020000DF91CF911F910F910895EF92FF920F937D
:100210001F93CF93DF9300D000D01F92CDB7DEB7EE
:10022000172F8D83042FF52E862F0E945300E82E62
:100230008F2D0E945300F82E812F1C30D1F49BEAA1
:10024000099F912D1124969596959695292F220F09
:10025000920F990F990F091B09F0802F0E945300EC
:100260002D8190E2299F900111242064122F182BD8
:1002700004C0802F0E945300182F80E00E94530278
:1002800080ED0E94760280E00E9476028E2D0E9410
:1002900076028F2D0E947602812F0E94760282E0E4
:1002A0000E9453020F900F900F900F900F90DF91CC
:1002B000CF911F910F91FF90EF900895CF93DF930F
:1002C000EC016FEF83E00E947C0081E00E9453020A
:1002D00081ED0E94760261E0CE0103960E947C02CD
:1002E00061E0CE010E947C0261E0CE0101960E9495
:1002F0007C0260E0CE0102960E947C0282E00E94B5
:10030000530288810E946600888389810E9466006A
:1003100089838A810E9466008A83DF91CF91089544
:10032000CF93DF93EC016FEF80E00E947C0081E0CF
:100330000E94530281ED0E94760261E0CE01029696
:100340000E947C0261E0CE0101960E947C0260E086
:10035000CE010E947C0282E00E9453028A818F7744
:100360000E9466008A8389810E9466008983888151
:1003700086FD10C005C088810E946600888313C076
:1003800098E19B830E94660091E08D3008F490E034
:100390009C83F1CF9CE09B8385FB992790F99C83FC
:1003A0008F718883E8CFDF91CF91089598EF980FF0
:1003B000983320F40E947C0081E0089580E0089545
:1003C000CF93DF9398EF980F983348F4EB016FEFDA
:1003D0000E947C00CE010E94940081E001C080E078
:1003E000DF91CF9108950E940704DA01C901409777
:1003F000A109B109AC01BD0176956795579547955F
:100400004F3F51056105710509F030F41092B900B4
:100410004093B80081E008954D3F83E0580761059F
:10042000710588F481E08093B900DB01CA01B695BB
:10043000A79597958795B695A79597958795809356
:10044000B80081E00895413F8FE0580761057105CC
:1004500088F482E08093B900DB01CA01689413F844
:10046000B695A795979587951694D1F78093B80080
:1004700081E00895413C8FE358076105710588F4D8
:1004800083E08093B900DB01CA01689415F8B69542
:10049000A795979587951694D1F78093B80081E03A
:1004A000089580E00895823059F030F0843081F072
:1004B00058F0853081F408C094EA9093BC000BC0DA
:1004C00084E98093BC000EC094E89093BC0003C004
:1004D00094EC9093BC00823029F0ECEBF0E080814A
:1004E0008823ECF78091B900887F08958093BB0042
:1004F00083E00E9453020895CF93DF93EC016111D2
:1005000002C085E001C084E00E9453029091BB00CC
:100510009883DF91CF9108951092C00088E0809376
:10052000C10086E08093C2001092C50087E68093E8
:10053000C40008951F920F920FB60F9211248F934B
:100540009F93EF93FF9380919301E0919401F09139
:100550009501E80FF11D80818093C6008091930181
:100560008F5F8093930190919201891306C0E1EC13
:10057000F0E080818F7D8083F894FF91EF919F91CF
:100580008F910F900FBE0F901F901895E0ECF0E048
:10059000908195FFFDCF8093C60008950F931F9320
:1005A000CF93DF93662371F0EC016150062F10E0CA
:1005B0000F5F1F4F080F191F89910E94C602C017B5
:1005C000D107D1F7DF91CF911F910F910895CF936C
:1005D000DF93CDB7DEB72E970FB6F894DEBF0FBE10
:1005E000CDBFE1E6F0E080E8808310820E948C02BB
:1005F0000E94710068E889E00E94D601882319F101
:10060000BE01665F7F4F89E00E94E0018823D9F038
:100610008A851F928F938EE191E09F938F9386E955
:1006200091E09F938F930E94290464E186E991E011
:100630000E94CE028DE00E94C6020F900F900F9094
:100640000F900F900F9081E00E94A7002FEF83EC96
:1006500099E0215080409040E1F700C0000080E028
:100660000E94A7002FEF83EC99E02150804090403A
:10067000E1F700C0000080E00E94AF008CE18983B8
:100680008CE08A8388E18B8387E08C8369817A811F
:100690008B819C810E94D60085E0EEE0F1E0DE01D6
:1006A000159601900D928A95E1F74D815E816F81DB
:1006B000788589850E94050180E00E94B500E12CC3
:1006C000F12C0F2EF8E18F2EF1E09F2EF02D0F2E42
:1006D000FBE16F2EF1E07F2EF02D0F2EF0E3AF2E19
:1006E000F1E0BF2EF02D06E911E00F2EF6E4CF2E3B
:1006F000F1E0DF2EF02D22E0E216F10424F48FEF7A
:10070000E81AF80A22C092E0E916F104F1F481E057
:100710000E94B50085E0E3E1F1E0DE011A96019068
:100720000D928A95E1F74A855B856C857D858E857E
:100730000E94050166E071E089E192E00E94D60026
:100740000F2EF3E0EF2EF12CF02DCE0105960E9436
:1007500090018985882319F0862D972D02C0882D58
:10076000992D9F938F9388851F928F938F811F92CE
:100770008F938E811F928F938D811F928F93BF9243
:10078000AF921F930F930E942904F801019000205B
:10079000E9F73197BF0166597140C8010E94CE0246
:1007A000CE0101960E945E01EC81F0E0EE0FFF1F8A
:1007B000E250FF4F81818F9380818F938B811F92B5
:1007C0008F938A811F928F9389811F928F93DF92DB
:1007D000CF921F930F930E942904F80101900020EB
:1007E000E9F73197BF0166597140C8010E94CE02F6
:1007F0002FEF83ED90E3215080409040E1F700C05F
:1008000000000FB6F894DEBF0FBECDBF74CFA1E2DB
:100810001A2EAA1BBB1BFD010DC0AA1FBB1FEE1F7A
:10082000FF1FA217B307E407F50720F0A21BB30BC5
:10083000E40BF50B661F771F881F991F1A9469F741
:1008400060957095809590959B01AC01BD01CF019D
:100850000895AEE0B0E0EFE2F4E00C94EA060D8912
:100860001E8986E08C831A8309838FEF9FE79E831E
:100870008D83AE01475E5F4F6F89788DCE01019603
:100880000E944B04EF81F885E00FF11F10822E9635
:10089000E4E00C940607ABE0B0E0E1E5F4E00C9492
:1008A000DC066C017B018A01FC01178216828381C0
:1008B00081FFCCC1CE0101963C01F6019381F70185
:1008C00093FD859193FF81917F01882309F4BAC13B
:1008D000853239F493FD859193FF81917F018532B3
:1008E00029F4B60190E00E944206E7CF912C212C1A
:1008F000312CFFE1F315D8F08B3279F038F48032E7
:1009000079F08332A1F4232D20611DC08D3261F076
:10091000803369F4232D216016C0832D8260382E28
:10092000E32DE4603E2E2AC0F32DF8601DC037FC95
:100930002DC020ED280F2A3040F08E32B9F436FC5D
:1009400081C1232D2064322E19C036FE06C08AE0F4
:10095000989E200D1124922E11C0EAE02E9E200DAB
:100960001124222EF32DF0623F2E08C08C3621F484
:10097000832D8068382E02C0883641F4F70193FD3C
:10098000859193FF81917F018111B3CF982F9F7D36
:100990009554933028F40C5F1F4F9FE399830DC04B
:1009A000833631F0833771F0833509F059C021C0A7
:1009B000F801808189830E5F1F4F88248394912CD6
:1009C000530113C02801F2E04F0E511CF801A08022
:1009D000B18036FE03C0692D70E002C06FEF7FEF7B
:1009E000C5010E9437064C018201F32DFF773F2E8F
:1009F00016C0280122E0420E511CF801A080B180EF
:100A000036FE03C0692D70E002C06FEF7FEFC501B5
:100A10000E942C064C01F32DF0683F2E820133FC1E
:100A20001BC0822D90E088169906B0F4B60180E2D2
:100A300090E00E9442062A94F4CFF50137FC85919C
:100A400037FE81915F01B60190E00E9442062110BD
:100A50002A9421E0821A91088114910471F7E8C068
:100A6000843611F0893641F5F80137FE07C0608100
:100A70007181828193810C5F1F4F08C060817181F9
:100A8000072E000C880B990B0E5F1F4FF32DFF767E
:100A90003F2E97FF09C090958095709561957F4F87
:100AA0008F4F9F4FF0683F2E2AE030E0A3010E9455
:100AB0007E06882E861845C0853731F4232D2F7E7B
:100AC000B22E2AE030E025C0932D997FB92E8F36C3
:100AD000C1F018F4883579F0B5C0803719F088373F
:100AE00021F0B0C0E92FE061BE2EB4FE0DC0FB2D99
:100AF000F460BF2E09C034FE0AC0292F2660B22E32
:100B000006C028E030E005C020E130E002C020E16E
:100B100032E0F801B7FE07C0608171818281938164
:100B20000C5F1F4F06C06081718180E090E00E5F16
:100B30001F4FA3010E947E06882E8618FB2DFF778B
:100B40003F2E36FE0DC0232D2E7FA22E891458F481
:100B500034FE0BC032FC09C0832D8E7EA82E05C04A
:100B6000B82CA32C03C0B82C01C0B92CA4FE0FC014
:100B7000FE01E80DF11D8081803321F49A2D997ECC
:100B8000A92E09C0A2FE06C0B394B39404C08A2D56
:100B9000867809F0B394A3FC11C0A0FE06C0B2147D
:100BA00088F4280C922C9B180EC0B21460F4B60185
:100BB00080E290E00E944206B394F7CFB21418F49A
:100BC0002B1802C0982C212CA4FE10C0B60180E383
:100BD00090E00E944206A2FE17C0A1FC03C088E775
:100BE00090E002C088E590E0B6010CC08A2D8678BE
:100BF00059F0A1FE02C08BE201C080E2A7FC8DE2A9
:100C0000B60190E00E944206891438F4B60180E3F0
:100C100090E00E9442069A94F7CF8A94F301E80D7F
:100C2000F11D8081B60190E00E9442068110F5CF4F
:100C3000222009F442CEB60180E290E00E944206F2
:100C40002A94F6CFF6018681978102C08FEF9FEF3D
:100C50002B96E2E10C94F806FC010590615070407F
:100C60000110D8F7809590958E0F9F1F0895FC0175
:100C70006150704001900110D8F7809590958E0FCB
:100C80009F1F08950F931F93CF93DF93FB01238141
:100C900021FD03C08FEF9FEF2CC022FF16C04681BD
:100CA0005781248135814217530744F4A081B181D3
:100CB0009D012F5F3F4F318320838C9326813781A5
:100CC0002F5F3F4F3783268314C08B01EC01FB015C
:100CD0000084F185E02D0995892BE1F6D80116965F
:100CE0008D919C911797019617969C938E931697CA
:100CF000CE01DF91CF911F910F910895FA01AA279C
:100D0000283051F1203181F1E8946F936E7F6E5F4E
:100D10007F4F8F4F9F4FAF4FB1E03ED0B4E03CD0FC
:100D2000670F781F891F9A1FA11D680F791F8A1FDF
:100D3000911DA11D6A0F711D811D911DA11D20D046
:100D400009F468943F912AE0269F11243019305D00
:100D50003193DEF6CF010895462F4770405D4193F1
:100D6000B3E00FD0C9F7F6CF462F4F70405D4A333E
:100D700018F0495D31FD4052419302D0A9F7EACF06
:100D8000B4E0A6959795879577956795BA95C9F735
:100D900000976105710508959B01AC010A2E069428
:100DA0005795479537952795BA95C9F7620F731FE1
:100DB000841F951FA01D08952F923F924F925F921E
:100DC0006F927F928F929F92AF92BF92CF92DF925B
:100DD000EF92FF920F931F93CF93DF93CDB7DEB7C0
:100DE000CA1BDB0B0FB6F894DEBF0FBECDBF099454
:100DF0002A88398848885F846E847D848C849B84AB
:100E0000AA84B984C884DF80EE80FD800C811B81B8
:100E1000AA81B981CE0FD11D0FB6F894DEBF0FBEE7
:0A0E2000CDBFED010895F894FFCF57
:100E2A005901600167016F017901820189010D2D64
:100E3A002518010B3B3A0C00414D00504D007265DC
:100E4A0061642066726F6D2052414D3A202575000B
:100E5A00253032753A253032753A253032752025DB
:100E6A00752025730D00253032752E253032752EEA
:100E7A00253032752025730D0053756E6461790033
:100E8A004D6F6E64617900547565736461790057BA
:100E9A0065646E6573646179005468757273646120
:100EAA00790046726964617900536174757264618C
:020EBA007900BD
:00000001FF
