:100000000C9434000C9451000C9451000C94510049
:100010000C9451000C9451000C9451000C9451001C
:100020000C9451000C9451000C9451000C9451000C
:100030000C9451000C9451000C9451000C945100FC
:100040000C9451000C9451000C9451000C947002CB
:100050000C9451000C9451000C9451000C945100DC
:100060000C9451000C94510011241FBECFEFD8E026
:10007000DEBFCDBF11E0A0E0B1E0E2EAFDE002C0EA
:1000800005900D92AA37B107D9F721E0AAE7B1E0B0
:1000900001C01D92A939B207E1F70E94BD020C947C
:1000A000CF060C9400009DEC899F912D112496950C
:1000B00096959695392F330F232F220F220F230F5A
:1000C000821B20E1929F800D11240895982F929514
:1000D0009F70990F292F220F220F920F8F70890F77
:1000E000089520EA36E841E050E060E074E284EFF1
:1000F00090E00E94C9010895CF93DF93D82FC62FB7
:1001000080E00E94290280ED0E944C028D2F0E9407
:100110004C02CF3F31F08C2F0E944C0282E00E94B3
:100120002902DF91CF910895CF93DF93EC0180E016
:100130000E94290281ED0E944C0260E0CE010E94E3
:10014000520282E00E942902DF91CF9108950F931D
:100150001F93CF93DF93182FD62F842F022F0E9447
:100160005300C82F8D2F0E945300D82F812F0E943B
:100170005300182F80E00E94290280ED0E944C025B
:1001800083E00E944C02802F0E944C02812F0E942B
:100190004C028D2F0E944C028C2F0E944C0282E058
:1001A0000E942902DF91CF911F910F9108951F9313
:1001B000CF93DF93C82FD62F842F0E945300182F80
:1001C0008D2F0E945300D82F8C2F0E945300C82FD0
:1001D00080E00E94290280ED0E944C0280E00E9493
:1001E0004C02812F0E944C028D2F0E944C028C2FBA
:1001F0000E944C0282E00E942902DF91CF911F9160
:10020000089590E8899FB001112487E00E947C0046
:100210000895682F606187E00E947C0008951F9315
:10022000CF93DF931F92CDB7DEB7182F6FEF80E02B
:100230000E947C00CE0101960E949400112321F0BF
:1002400089818F77898303C08981806889836981E7
:1002500080E00E947C000F90DF91CF911F91089564
:10026000CF92DF92EF92FF920F931F93CF93DF9382
:10027000EC018B017A0169016FEF83E00E947C0041
:1002800081E00E94290281ED0E944C0261E0C601DA
:100290000E94520261E0C7010E94520261E0C8015F
:1002A0000E94520260E0CE010E94520282E00E944F
:1002B0002902F70180810E946600F7018083F8011E
:1002C00080810E946600F801808388810E94660018
:1002D0008883DF91CF911F910F91FF90EF90DF9076
:1002E000CF900895EF92FF920F931F93CF93DF93D8
:1002F000EC018B017A016FEF80E00E947C0081E0CD
:100300000E94290281ED0E944C0261E0C7010E9417
:10031000520261E0C8010E94520260E0CE010E94D8
:10032000520282E00E942902F70180818F770E94A9
:100330006600F7018083F80180810E946600F80161
:10034000808388810E9466008883DF91CF911F910E
:100350000F91FF90EF90089598EF980F983320F445
:100360000E947C0081E0089580E00895CF93DF93A0
:1003700098EF980F983348F4EB016FEF0E947C00E0
:10038000CE010E94940081E001C080E0DF91CF9116
:1003900008950E94C303DA01C9014097A109B10978
:1003A000AC01BD0176956795579547954F3F51052F
:1003B0006105710509F030F41092B9004093B8005E
:1003C00081E008954D3F83E058076105710588F489
:1003D00081E08093B900DB01CA01B695A795979596
:1003E0008795B695A795979587958093B80081E0F6
:1003F0000895413F8FE058076105710588F482E058
:100400008093B900DB01CA01689413F8B695A795EB
:10041000979587951694D1F78093B80081E0089559
:10042000413C8FE358076105710588F483E08093B0
:10043000B900DB01CA01689415F8B695A7959795A0
:1004400087951694D1F78093B80081E0089580E0F5
:100450000895823059F030F0843081F058F08530C2
:1004600081F408C094EA9093BC000BC084E98093A7
:10047000BC000EC094E89093BC0003C094EC909331
:10048000BC00823029F0ECEBF0E080818823ECF7AF
:100490008091B900887F08958093BB0083E00E941B
:1004A00029020895CF93DF93EC01611102C085E02A
:1004B00001C084E00E9429029091BB009883DF91E3
:1004C000CF9108951092C00088E08093C10086E02B
:1004D0008093C2001092C50087E68093C4000895FF
:1004E0001F920F920FB60F9211248F939F93EF9349
:1004F000FF9380917B01E0917C01F0917D01E80FF9
:10050000F11D80818093C60080917B018F5F809375
:100510007B0190917A01891306C0E1ECF0E08081C3
:100520008F7D8083F894FF91EF919F918F910F9031
:100530000FBE0F901F901895E0ECF0E0908195FFB2
:10054000FDCF8093C60008950F931F93CF93DF9341
:10055000662371F0EC016150062F10E00F5F1F4F12
:10056000080F191F89910E949C02C017D107D1F76B
:10057000DF91CF911F910F910895CF93DF931F9239
:10058000CDB7DEB7E1E6F0E080E8808310820E941C
:1005900062020E94710068E889E00E94AC01882331
:1005A00019F1BE016F5F7F4F89E00E94B601882379
:1005B000D9F089811F928F938EE091E09F938F9362
:1005C00084E891E09F938F930E94E50364E184E8BF
:1005D00091E00E94A4028DE00E949C020F900F9077
:1005E0000F900F900F900F9081E00E9401012FEF6C
:1005F00087EA91E6215080409040E1F700C000007A
:1006000080E00E9401012FEF87EA91E621508040AF
:100610009040E1F700C0000080E00E94090127E05F
:1006200048E16CE08CE10E94A70040E26DE28DE0C1
:100630000E94D70080E00E940F01E12CF12C0F2EC8
:10064000F0E2AF2EF1E0BF2EF02D04E811E00F2E06
:10065000FFE2CF2EF1E0DF2EF02D0F2EFEE08F2EE9
:10066000F1E09F2EF02D4FE751E063E871E088E95B
:1006700091E00E94720180917F011F928F9380917F
:1006800083011F928F93809198011F928F93BF9245
:10069000AF921F930F930E94E50368E0C8010E9488
:1006A000A4028DE00E949C0222E831E041E851E082
:1006B0006EE771E080E891E00E943001E0918201F4
:1006C000F0E0EE0FFF1FE250FF4F81818F9380819A
:1006D0008F93809180011F928F9380917E011F9252
:1006E0008F93809181011F928F93DF92CF921F93FE
:1006F0000F930E94E50364E1C8010E94A4028DE00B
:100700000E949C020FB6F894DEBF0FBECDBF9AE0E8
:10071000E916F10424F42FEFE21AF20A2AC08AE063
:10072000E816F10431F581E00E940F01BE016F5F10
:100730007F4F89E00E94B6018823B1F089811F9222
:100740008F939F928F921F930F930E94E50364E112
:10075000C8010E94A4028DE00E949C020F900F909D
:100760000F900F900F900F900F2EFBE0EF2EF12CBB
:10077000F02D9FEF29E688E1915020408040E1F77D
:1007800000C0000070CFA1E21A2EAA1BBB1BFD0106
:100790000DC0AA1FBB1FEE1FFF1FA217B307E40760
:1007A000F50720F0A21BB30BE40BF50B661F771FB8
:1007B000881F991F1A9469F7609570958095909598
:1007C0009B01AC01BD01CF010895AEE0B0E0EBEEBE
:1007D000F3E00C94A6060D891E8986E08C831A83AB
:1007E00009838FEF9FE79E838D83AE01475E5F4F46
:1007F0006F89788DCE0101960E940704EF81F885FC
:10080000E00FF11F10822E96E4E00C94C206ABE0DC
:10081000B0E0EDE0F4E00C9498066C017B018A01F5
:10082000FC0117821682838181FFCCC1CE01019623
:100830003C01F6019381F70193FD859193FF81912E
:100840007F01882309F4BAC1853239F493FD85917B
:1008500093FF81917F01853229F4B60190E00E94D7
:10086000FE05E7CF912C212C312CFFE1F315D8F0B8
:100870008B3279F038F4803279F08332A1F4232D71
:1008800020611DC08D3261F0803369F4232D216019
:1008900016C0832D8260382EE32DE4603E2E2AC0E0
:1008A000F32DF8601DC037FC2DC020ED280F2A3035
:1008B00040F08E32B9F436FC81C1232D2064322EF3
:1008C00019C036FE06C08AE0989E200D1124922E93
:1008D00011C0EAE02E9E200D1124222EF32DF0628D
:1008E0003F2E08C08C3621F4832D8068382E02C03C
:1008F000883641F4F70193FD859193FF81917F0143
:100900008111B3CF982F9F7D9554933028F40C5FBD
:100910001F4F9FE399830DC0833631F0833771F009
:10092000833509F059C021C0F801808189830E5FA9
:100930001F4F88248394912C530113C02801F2E0A7
:100940004F0E511CF801A080B18036FE03C0692D06
:1009500070E002C06FEF7FEFC5010E94F3054C010C
:100960008201F32DFF773F2E16C0280122E0420EB0
:10097000511CF801A080B18036FE03C0692D70E0E3
:1009800002C06FEF7FEFC5010E94E8054C01F32D17
:10099000F0683F2E820133FC1BC0822D90E0881648
:1009A0009906B0F4B60180E290E00E94FE052A9418
:1009B000F4CFF50137FC859137FE81915F01B601D7
:1009C00090E00E94FE0521102A9421E0821A9108ED
:1009D0008114910471F7E8C0843611F0893641F52D
:1009E000F80137FE07C060817181828193810C5FBD
:1009F0001F4F08C060817181072E000C880B990B76
:100A00000E5F1F4FF32DFF763F2E97FF09C0909585
:100A10008095709561957F4F8F4F9F4FF0683F2E67
:100A20002AE030E0A3010E943A06882E861845C0CD
:100A3000853731F4232D2F7EB22E2AE030E025C0F9
:100A4000932D997FB92E8F36C1F018F4883579F03F
:100A5000B5C0803719F0883721F0B0C0E92FE061C8
:100A6000BE2EB4FE0DC0FB2DF460BF2E09C034FEB7
:100A70000AC0292F2660B22E06C028E030E005C04B
:100A800020E130E002C020E132E0F801B7FE07C00B
:100A900060817181828193810C5F1F4F06C06081EC
:100AA000718180E090E00E5F1F4FA3010E943A0623
:100AB000882E8618FB2DFF773F2E36FE0DC0232D86
:100AC0002E7FA22E891458F434FE0BC032FC09C0CC
:100AD000832D8E7EA82E05C0B82CA32C03C0B82C65
:100AE00001C0B92CA4FE0FC0FE01E80DF11D8081EC
:100AF000803321F49A2D997EA92E09C0A2FE06C04A
:100B0000B394B39404C08A2D867809F0B394A3FCFF
:100B100011C0A0FE06C0B21488F4280C922C9B18B9
:100B20000EC0B21460F4B60180E290E00E94FE05AF
:100B3000B394F7CFB21418F42B1802C0982C212CC0
:100B4000A4FE10C0B60180E390E00E94FE05A2FE64
:100B500017C0A1FC03C088E790E002C088E590E0E0
:100B6000B6010CC08A2D867859F0A1FE02C08BE236
:100B700001C080E2A7FC8DE2B60190E00E94FE0574
:100B8000891438F4B60180E390E00E94FE059A943F
:100B9000F7CF8A94F301E80DF11D8081B60190E052
:100BA0000E94FE058110F5CF222009F442CEB60145
:100BB00080E290E00E94FE052A94F6CFF60186813D
:100BC000978102C08FEF9FEF2B96E2E10C94B40661
:100BD000FC010590615070400110D8F78095909508
:100BE0008E0F9F1F0895FC0161507040019001100D
:100BF000D8F7809590958E0F9F1F08950F931F93A0
:100C0000CF93DF93FB01238121FD03C08FEF9FEF83
:100C10002CC022FF16C0468157812481358142179E
:100C2000530744F4A081B1819D012F5F3F4F318371
:100C300020838C93268137812F5F3F4F3783268314
:100C400014C08B01EC01FB010084F185E02D0995B6
:100C5000892BE1F6D80116968D919C9117970196F4
:100C600017969C938E931697CE01DF91CF911F918B
:100C70000F910895FA01AA27283051F1203181F10E
:100C8000E8946F936E7F6E5F7F4F8F4F9F4FAF4F94
:100C9000B1E03ED0B4E03CD0670F781F891F9A1FA7
:100CA000A11D680F791F8A1F911DA11D6A0F711D5B
:100CB000811D911DA11D20D009F468943F912AE067
:100CC000269F11243019305D3193DEF6CF0108954F
:100CD000462F4770405D4193B3E00FD0C9F7F6CF80
:100CE000462F4F70405D4A3318F0495D31FD405248
:100CF000419302D0A9F7EACFB4E0A69597958795DE
:100D000077956795BA95C9F70097610571050895BC
:100D10009B01AC010A2E0694579547953795279568
:100D2000BA95C9F7620F731F841F951FA01D089500
:100D30002F923F924F925F926F927F928F929F92EB
:100D4000AF92BF92CF92DF92EF92FF920F931F93D9
:100D5000CF93DF93CDB7DEB7CA1BDB0B0FB6F8948A
:100D6000DEBF0FBECDBF09942A88398848885F84CA
:100D70006E847D848C849B84AA84B984C884DF803B
:100D8000EE80FD800C811B81AA81B981CE0FD11D1F
:100D90000FB6F894DEBF0FBECDBFED010895F894F5
:020DA000FFCF83
:100DA200400147014E0156016001690170017265FF
:100DB20061642066726F6D2052414D3A20257500A4
:100DC200253032753A253032753A25303275002594
:100DD2003032752E253032752E2575202573200070
:100DE20053756E646179004D6F6E6461790054755C
:100DF2006573646179005765646E65736461790037
:100E0200546875727364617900467269646179002D
:0A0E12005361747572646179000089
:00000001FF
