:100000000C9434000C948C000C9451000C9451000E
:100010000C9451000C9451000C9451000C94E0008D
:100020000C9451000C9451000C9451000C9451000C
:100030000C9451000C9451000C9451000C945100FC
:100040000C9451000C9451000C9451000C945100EC
:100050000C9451000C9451000C9451000C945100DC
:100060000C9451000C94510011241FBECFEFD8E026
:10007000DEBFCDBF11E0A0E0B1E0ECE5F2E002C0F0
:1000800005900D92A431B107D9F721E0A4E1B1E0C8
:1000900001C01D92A631B207E1F70E9453000C94F3
:1000A0002C010C94000080E00E94D300FFCF8093CD
:1000B000140144B121E030E0B90102C0660F771F9E
:1000C0008A95E2F7CB01842B84B9089525B181E0AC
:1000D00090E00090140102C0880F991F0A94E2F783
:1000E000822B85B9089525B181E090E0009014013C
:1000F00002C0880F991F0A94E2F78095822385B980
:100100000895109215015298E9E6F0E0808183602D
:100110008083E89AE09A08951F920F920FB60F928B
:1001200011242F933F934F935F936F937F938F93FC
:100130009F93AF93BF93EF93FF93809115018A3004
:1001400098F40E947300E0911501F0E0EE0FFF1F9C
:10015000E050FF4F808191810E9410018091150134
:100160008F5F809315010EC0843151F00E942601EB
:100170000E947300809115018F5F8093150102C06A
:1001800010921501FF91EF91BF91AF919F918F91C7
:100190007F916F915F914F913F912F910F900FBE83
:1001A0000F901F901895CF93C82FF8940E940701C5
:1001B0008C2F0E9457000E9481007894CF9108955F
:1001C0001F920F920FB60F9211242F933F934F93CC
:1001D0005F936F937F938F939F93AF93BF93EF93AF
:1001E000FF9389B1843011F00E946600FF91EF9176
:1001F000BF91AF919F918F917F916F915F914F913F
:100200003F912F910F900FBE0F901F90189582E095
:100210008093B00087E08093B1001092B2000895FF
:10022000F894A0E0B0E0880F991FAA1FBB1F880FA9
:10023000991FAA1FBB1F8FEF890F8093B3001092E5
:10024000B20082E08093700078940895E0E7F0E0D7
:0C02500080818D7F80830895F894FFCF9B
:10025C00581B641970177C1588139411A00FAC0DE2
:04026C00B80BD007F4
:00000001FF
