S01A0000766F6C745F70686173655F636F6E74726F6C2E7372656375
S11300000C9434000C94E7000C9451000C945100AF
S11300100C9451000C9451000C9451000C94110157
S11300200C9451000C9451000C9451000C94510008
S11300300C9451000C9451000C945B010C945100ED
S11300400C9451000C9451000C9451000C945100E8
S11300500C9451000C9451000C9451000C945100D8
S11300600C9451000C94510011241FBECFEFD8E022
S1130070DEBFCDBF11E0A0E0B1E0EEEEF2E002C0E1
S113008005900D92A431B107D9F721E0A4E1B1E0C4
S113009001C01D92A931B207E1F70E945F000C94E0
S11300A075010C940000F8940E94380180E00E94CD
S11300B07A000E94A4000E946B01789408950E9423
S11300C0530080911501813059F4809114018130DD
S11300D0C1F381E00E940B0181E080931401F1CF10
S11300E080911401882369F380E00E940B0110922F
S11300F01401E7CF8093170144B121E030E0B90146
S113010002C0660F771F8A95E2F7CB01842B84B96E
S1130110089525B181E090E00090170102C0880F96
S1130120991F0A94E2F7822B85B9089525B181E0DD
S113013090E00090170102C0880F991F0A94E2F71B
S11301408095822385B908955298E9E6F0E080818C
S113015083608083E09A089510921801E89A0895C4
S1130160E8980895809118018A30F0F40E9496006E
S113017080911601811104C0E0911801F0E006C0DD
S113018080911801E9E0F0E0E81BF109EE0FFF1F90
S1130190E050FF4F808191810E94410180911801BC
S11301A08F5F8093180108950E94B0000E9455014A
S11301B080911601811106C00E94890081E080931C
S11301C0160108950E9496001092160108951F9238
S11301D00F920FB60F9211242F933F934F935F9377
S11301E06F937F938F939F93AF93BF93EF93FF93FB
S11301F00E94B200FF91EF91BF91AF919F918F91B7
S11302007F916F915F914F913F912F910F900FBE0E
S11302100F901F9018959091160198130E94AC00AE
S113022008951F920F920FB60F9211242F933F93AC
S11302304F935F936F937F938F939F93AF93BF93EA
S1130240EF93FF9389B1843011F00E948900FF91EC
S1130250EF91BF91AF919F918F917F916F915F913A
S11302604F913F912F910F900FBE0F901F901895B3
S113027082E08093B00087E08093B1001092B200D6
S11302800895A0E0B0E0880F991FAA1FBB1F880F34
S1130290991FAA1FBB1F8FEF890F8093B300109281
S11302A0B20082E0809370000895E0E7F0E080817E
S11302B08D7F808308951F920F920FB60F921124A1
S11302C08F9386B18F71809315018F910F900FBE1C
S11302D00F901F90189517B882E080936E0084BD2C
S11102E085E085BD89EE87BD0895F894FFCFB3
S11302EE581B641970177C1588139411A00FAC0D4C
S10702FEB80BD0075E
S9030000FC
