S01A0000766F6C745F70686173655F636F6E74726F6C2E7372656375
S11300000C9434000C94DF000C9451000C945100B7
S11300100C9451000C9451000C9451000C940F0159
S11300200C9451000C9451000C9451000C94510008
S11300300C9451000C9451000C9451000C945100F8
S11300400C9451000C9451000C9451000C945100E8
S11300500C9451000C9451000C9451000C945100D8
S11300600C9451000C94510011241FBECFEFD8E022
S1130070DEBFCDBF11E0A0E0B1E0EAEBF2E002C0E8
S113008005900D92A431B107D9F721E0A4E1B1E0C4
S113009001C01D92A731B207E1F70E945B000C94E6
S11300A05B010C9400000E94360180E00E947600FF
S11300B00E94A00008950E94530081E00E9405015F
S11300C02FEF89E698E1215080409040E1F700C08D
S11300D0000080E00E9405012FEF89E698E121509D
S11300E080409040E1F700C00000E7CF8093150105
S11300F044B121E030E0B90102C0660F771F8A9550
S1130100E2F7CB01842B84B9089525B181E090E016
S11301100090150102C0880F991F0A94E2F7822B00
S113012085B9089525B181E090E00090150102C0E1
S1130130880F991F0A94E2F78095822385B9089560
S11301405298E9E6F0E0808183608083E09A089524
S113015010921601E89A0895E8980895CF93C82F4D
S1130160809116018A30E0F40E949200C13021F49B
S1130170E0911601F0E006C080911601E9E0F0E09C
S1130180E81BF109EE0FFF1FE050FF4F80819181C2
S11301900E943F01809116018F5F809316010DC06C
S11301A00E94AC00109216010E945501C13019F44E
S11301B00E94850002C00E949200CF9108951F9270
S11301C00F920FB60F9211242F933F934F935F9387
S11301D06F937F938F939F93AF93BF93EF93FF930B
S11301E0809114010E94AE00FF91EF91BF91AF91F5
S11301F09F918F917F916F915F914F913F912F913B
S11302000F900FBE0F901F901895CF93C82FF8949E
S11302100E94A800C09314017894CF9108951F926E
S11302200F920FB60F9211242F933F934F935F9326
S11302306F937F938F939F93AF93BF93EF93FF93AA
S113024089B1843011F00E948500FF91EF91BF9134
S1130250AF919F918F917F916F915F914F913F915A
S11302602F910F900FBE0F901F90189582E08093EE
S1130270B00087E08093B1001092B2000895F89422
S1130280A0E0B0E0880F991FAA1FBB1F880F991F19
S1130290AA1FBB1F8FEF890F8093B3001092B20087
S11302A082E08093700078940895E0E7F0E0808124
S10D02B08D7F80830895F894FFCF3A
S11302BA581B641970177C1588139411A00FAC0D80
S10702CAB80BD00792
S9030000FC
