:100000000C9434000C94D8000C9451000C945100C2
:100010000C9451000C9451000C9451000C94080164
:100020000C9451000C9451000C9451000C9451000C
:100030000C9451000C9451000C942D010C9451001F
:100040000C9451000C9451000C9451000C945100EC
:100050000C9451000C9451000C9451000C945100DC
:100060000C9451000C94510011241FBECFEFD8E026
:10007000DEBFCDBF11E0A0E0B1E0EAEDF2E002C0EA
:1000800005900D92A431B107D9F721E0A4E1B1E0C8
:1000900001C01D92A831B207E1F70E945D000C94E7
:1000A0006B010C940000F8940E94570180E00E94BC
:1000B0006B000E949500789408950E9453008091EF
:1000C0001501887C21F081E00E94FC00F8CF80E0DF
:1000D0000E94FC00F4CF8093160144B121E030E08F
:1000E000B90102C0660F771F8A95E2F7CB01842B16
:1000F00084B9089525B181E090E00090160102C016
:10010000880F991F0A94E2F7822B85B9089525B1CB
:1001100081E090E00090160102C0880F991F0A94B8
:10012000E2F78095822385B908955298E9E6F0E0D8
:10013000808183608083E09A089510921701E89A85
:100140000895E8980895809117018A30F0F40E948C
:10015000870080911401823021F4E0911701F0E0D2
:1001600006C080911701E9E0F0E0E81BF109EE0F0D
:10017000FF1FE050FF4F808191810E943D018091DF
:1001800017018F5F8093170108950E94A1000E94BC
:10019000510180911401823031F40E947A0081E093
:1001A0008093140108950E9487001092140108950D
:1001B0001F920F920FB60F9211242F933F934F93DC
:1001C0005F936F937F938F939F93AF93BF93EF93BF
:1001D000FF930E94A300FF91EF91BF91AF919F9178
:1001E0008F917F916F915F914F913F912F910F90E0
:1001F0000FBE0F901F90189590911401923038F413
:10020000981729F09E5F909314010E949D00089515
:100210001F920F920FB60F9211242F933F934F937B
:100220005F936F937F938F939F93AF93BF93EF935E
:10023000FF934A9B0E947A00FF91EF91BF91AF918B
:100240009F918F917F916F915F914F913F912F91EE
:100250000F900FBE0F901F9018951F920F920FB620
:100260000F9211248F9389B1887F809315018F910C
:100270000F900FBE0F901F901895A0E0B0E0880F70
:10028000991FAA1FBB1F880F991FAA1FBB1F8FEFA3
:10029000890F8093B3001092B20082E080937000C7
:1002A0000895E0E7F0E080818D7F808308958AB132
:1002B00087708AB982E08093B00097E09093B10094
:1002C0001092B20084BD95E095BD99EE97BD8093E4
:0A02D0006E0016BC0895F894FFCFED
:1002DA00581B641970177C1588139411A00FAC0D64
:0402EA00B80BD00776
:00000001FF
