:0C0000000C9495000C9400000C9400007F
:10000C000C9400000C9400000C9400000C94000064
:10001C000C9400000C9400000C9400000C94000054
:10002C000C94D2000C9400000C9400000C94000072
:10003C000C9400000C9400000C9400000C94000034
:10004C000C9400000C9400000C9400000C94000024
:10005C000C9400000C9400000C9400000004090D9A
:10006C0012161B1F23282C3135393E42464B4F5359
:10007C00575B6064686C7074787C7F83878B8F921D
:10008C0096999DA0A4A7ABAEB1B4B7BABEC0C3C677
:10009C00C9CCCED1D3D6D8DBDDDFE1E3E5E7E9EBA4
:1000AC00ECEEF0F1F3F4F5F6F7F8F9FAFBFCFDFDE4
:1000BC00FEFEFEFFFFFFFFFFFFFFFEFEFEFDFDFC51
:1000CC00FBFAF9F8F7F6F5F4F3F1F0EEECEBE9E7FF
:1000DC00E5E3E1DFDDDBD8D6D3D1CECCC9C6C3C0D6
:1000EC00BEBAB7B4B1AEABA7A4A09D9996928F8BB4
:1000FC0087837F7C7874706C6864605B57534F4B5C
:10010C0046423E3935312C28231F1B16120D09048B
:10011C00000000010000040003001E010000F89420
:10012C00EE27EFBBF1E0F5BFE5BF8DE0A2E0BB270A
:10013C00ED938A95E9F780E098E0A0E0B1E0ED93CB
:10014C000197E9F7E2E2F1E085919591009761F072
:10015C00A591B59105901590BF01F00105900D92F8
:10016C000197E1F7FB01F0CFE0E0EEBBEFEFEDBF65
:10017C00E8E0EEBFC0E0D3E00C942B01AA9368D06A
:10018C00DF01CB01E8E00E945001E093890060D0D0
:10019C00E0938800239608950A92EA93FA93EFB7B6
:1001AC00EA93E4EBE61518F4E1E04E266624E2E06F
:1001BC00E61519F0E2EBE61511F4E1E03E26639446
:1001CC00E1E0E41529F4E1E856D007BC38B806C0E4
:1001DC00E1E251D008BCE32DEE0FE8B9E991EFBF95
:1001EC00F991E99109901895E0E8E0936100E0E05D
:1001FC00E0936100E3E0E7B9E0E6EAB9E1E8E4BDE9
:10020C00E1E0E5BDE0E0E6BDE7BDE8BDE0938000E0
:10021C00E9E0E0938100E0E0E0938500E093840066
:10022C00E0938700E0938600E0938B00E0938A00D4
:10023C00E2E0E0936F00E0E8E0BFE2E3F0E0FA9385
:10024C00EA93A4EB9BDF78940895CEDFFFCFFFCF2A
:10025C00E881F0E00E945C01A0E0B8E98AE390E05C
:10026C000E948601DF01CB01E981FA81662777279D
:10027C000E9486010895E4BDE62DF0E0E859FF4F99
:10028C0004900895F09560957095E195FF4F6F4F30
:10029C007F4F0895EE230E2EFD01BC0131F07595B4
:1002AC006795F795E7950A94D1F708956F2F660F28
:1002BC00660B762F08953F934F935F930024112480
:1002CC004427552730E2AA0FBB1F881F991F001C1B
:1002DC00111C441F551F0E1A1F0A460B570B28F4EE
:1002EC000E0E1F1E461F571F01C0A1603A9559F7ED
:1002FC00FD01BC01D001CA015F914F913F9108955E
:10030C0004D0D9DF0EF4BEDF0895E89477FF02C065
:10031C00B9DF689497FF0BC00024A095B095809529
:10032C0090951196801D901D00F8039400FA089585
:00000001FF
