:040000000C94A701B4
:100004000C9400000C9400000C9400000C9400006C
:100014000C9400000C9400000C9400000C9400005C
:100024000C9400000C9400000C9460020C940000EA
:100034000C9400000C9400000C9400000C9400003C
:100044000C9400000C9400000C9400000C9400002C
:100054000C94A6020C9400000C9400000C94000074
:100064000C9400000000003F1D5A043FC3F5083FF4
:10007400DF4F0D3F85EB113FA245163FBE9F1A3F50
:10008400DBF91E3FF853233F14AE273FA8C62B3F8E
:100094003BDF2F3FCFF7333F6210383FF6283C3F1A
:1000A4000000403F0AD7433F14AE473F96434B3FBF
:1000B40017D94E3F0E2D523F8FC2553FFED4583FA5
:1000C400F6285C3F643B5F3F4A0C623F2FDD643F90
:1000D40014AE673F713D6A3F448B6C3F17D96E3F46
:1000E40060E5703FAAF1723FF4FD743FB4C8763FF7
:1000F400EC51783F23DB793FD1227B3FF6287C3FCC
:100104001B2F7D3FB6F37D3F52B87E3F643B7F3F5C
:1001140077BE7F3F0000803F0000803F0000803FAB
:1001240077BE7F3F643B7F3F52B87E3FB6F37D3F4F
:100134001B2F7D3FF6287C3FD1227B3F23DB793F79
:10014400EC51783FB4C8763FF4FD743FAAF1723F96
:1001540060E5703F17D96E3F448B6C3F713D6A3F39
:1001640014AE673F2FDD643F4A0C623F643B5F3F40
:10017400F6285C3FFED4583F8FC2553F0E2D523FA8
:1001840017D94E3F96434B3F14AE473F0AD7433FE0
:100194000000403FF6283C3F6210383FCFF7333F22
:1001A4003BDF2F3FA8C62B3F14AE273FF853233F16
:1001B400DBF91E3FBE9F1A3FA245163F85EB113F58
:1001C400DF4F0D3FC3F5083F1D5A043F0000003FB9
:1001D400C74BF73E7B14EE3E4260E53EF628DC3E1C
:1001E400BC74D33E83C0CA3E4A0CC23E1058B93ECA
:1001F400D7A3B03EB072A83E8941A03E6210983E9B
:100204003BDF8F3E14AE873E0000803ED7A3703E96
:10021400AE47613EAAF1523EA69B443EC74B373ED1
:10022400C3F5283E08AC1C3E295C0F3E6F12033E0A
:10023400B29DEF3D8716D93D8195C33DA01AAF3DD0
:10024400E3A59B3D4C37893DB29D6F3DF2414F3D47
:100254007CF2303D2B18153DFE65F73C39B4C83CA3
:10026400C0EC9E3C211F743CEA95323C6C09F93B7E
:1002740085949F3B9291333B68E89F3A68E89F39A5
:100284000000000068E89F3968E89F3A9291333B88
:1002940085949F3B6C09F93BEA95323C211F743CE1
:1002A400C0EC9E3C39B4C83CFE65F73C2B18153DA8
:1002B4007CF2303DF2414F3DB29D6F3D4C37893D5C
:1002C400E3A59B3DA01AAF3D8195C33D8716D93D5B
:1002D400B29DEF3D6F12033E295C0F3E08AC1C3EFD
:1002E400C3F5283EC74B373EA69B443EAAF1523E77
:1002F400AE47613ED7A3703E0000803E14AE873EF9
:100304003BDF8F3E6210983E8941A03EB072A83E0A
:10031400D7A3B03E1058B93E4A0CC23E83C0CA3E71
:10032400BC74D33EF628DC3E4260E53E7B14EE3ED0
:10033400C74BF73E0000003F000000000000FF0034
:1003440000640600030040030000F894EE27EFBBAE
:10035400F1E0F5BFE5BF8DE0A2E0BB27ED938A9500
:10036400E9F780E098E0A0E0B1E0ED930197E9F7C8
:10037400E6E4F3E085919591009761F0A591B5913C
:1003840005901590BF01F00105900D920197E1F7DA
:10039400FB01F0CFE0E0EEBBEFEFEDBFE8E0EEBF36
:1003A400C0E0D3E00C94EE02E0E0E4BDE5BDE7BDBF
:1003B400E8BDE0938000E0938100E0938900E0933E
:1003C4008800E4E0E0936F00E0E0E093B000E093A5
:1003D400B100E093B300E093B4000895E5DFE0E6F4
:1003E400EBB9E8E0E5B90895AA931A930A93EA8170
:1003F400F0E0A8E6B0E80E941F048F011093890082
:10040400E09388001981088123960895AA931A938A
:1004140010E010E0153BF8F4E12FF0E0EB5FFC4F47
:10042400FF93EF93E12FA8E6B0E0F0E00E941404FC
:10043400EA0FFB1F0E943204A981BB278827992752
:100444000E943A040E94BE03AF91BF910E945703D9
:10045400EC931F5FDFCF18812FC0AA93A981C4DF5B
:10046400A881D4DFE0E0E0930203E0930303E09388
:100474000403E1EAE4BDE2E0E5BDE0E0E6BDE1E875
:10048400E093B000E2E0E093B100E0E0E093B2007A
:10049400E0938000E9E0E0938100E0E0E0938500F0
:1004A400E0938400E0938700E0938600E0916F007E
:1004B400E260E0936F00789422960895AA93EA93F9
:1004C400FA93EFB7EA93E0910203EF5FE09302033C
:1004D400A0910203A53B18F0E0E0E0930203E09151
:1004E4000203A6D0E7BDE8E73E1610F4339411C02A
:1004F400E0910303EF5FE0930303A0910303A53BA3
:1005040018F0E0E0E0930303E091030391D0E0935B
:10051400B300ECE36E1610F4639410C0E09104038E
:10052400EF5FE0930403A0910403A53B18F0E0E01F
:10053400E0930403E09104037BD0E8BDE991EFBFAD
:10054400F991E991A9911895AA93BA93EA93EFB70F
:10055400EA93A42DB0E0A050BD4FE0917900EC9354
:10056400E1E0E41511F4442402C0E1E04E2EE42D50
:10057400E066E0937C00E0917A00E064E0937A0026
:10058400E991EFBFE991B991A9911895E0E8E09359
:100594006100E0E0E0936100E0E8E0BFECE3E093B9
:1005A4007E00E0E6E0937C00EBEEE0937A00E5E089
:1005B400E0937B00E0916F00E460E0936F00EFEF65
:1005C400E0938B00E0938A00E0E6EAB9E8E0E4B95E
:1005D4008A92A52D42DF0895D9DFA0910003A030AF
:1005E40021F0A0910103A03079F4A0910003A03080
:1005F40021F0A0910103A03011F4F0DEF6CF1DD05C
:10060400EA93A091000329DFE0910003E51521F0AE
:1006140050900003A52DFADE10D0A82DB0E0EA1703
:10062400FB0721F00AD08E2EA82DDEDED6CFFFCF19
:10063400F0E0EB5FFC4FE0810895E0910103A4E654
:10064400EA9FF001DF01EFEFF0E00E941F0408953C
:10065400552342F4503811F4E0FF04C03196691F69
:10066400791F6BF050E8572711F45F9373C05F3F15
:1006740031F0660F000C57956795752F08955F93B9
:1006840000200AF073C06CC050E8192E1522880FA0
:10069400991F9527550F879550E8072E0522660F59
:1006A400771F7527550F67950895689401C0E894DE
:1006B4005F93F2DF703818F07F3F08F44BC056E1C7
:1006C400571BAAF4519558300EF4593030F0EFEF1F
:1006D400FFEF6FEF7FE777F91AC077275523B9F05B
:1006E400EE0FFF1F661F771F5A95D1F710C07727AB
:1006F400583028F0EF2FF62F672F5850F9CF552395
:1007040031F076956795F795E7955A95D1F70020DE
:100714000AF480D05F910895689401C0E8943097FA
:1007240060407040B1F0002426F0772312F4009466
:1007340071D0172E7EE1112032F07A95EE0FFF1F53
:10074400661F111CF9CFEF2FF62F612D5F938ADFFF
:100754005F910895EE27FF27662777275F91089515
:10076400EFEFFFEF6FE77FEF5F910895EFEFFFEF9C
:100774006FE77FE75F9108955F9386DF703851F3E9
:10078400903841F301240894791F23F41CF30020CA
:100794003AF3ECCF0F921F932F933F934F9311276C
:1007A40022279927689FA0018F9F302D410D591F43
:1007B4006B9F300D411D591F8E9F27D0BF9F25D0A1
:1007C4006A9F23D0BE9F1DD0AF9F1BD0AE9F110D3B
:1007D400291F391F491F591FE32FF42F652F522F4B
:1007E4004F913F912F911F910F9066232AF0550F3F
:1007F400EE1FFF1F661F02C073954BF229DF5F9146
:100804000895100D211D391F02C0200D311D491FEF
:10081400591F0895F09560957095E195FF4F6F4FBE
:100824007F4F0895EE0FFF1FEE0FFF1F0895BA2F9D
:10083400BB0FBB0B8B2F9B2F08950024112490E139
:10084400AA0FBB1F001C111C0E1A1F0A18F40E0E4F
:100854001F1E01C0A1609A9599F7FD01D00108956A
:100864000590159065917491F0010895689401C004
:10087400E89401D054DF182E862F612D192E972F5E
:10088400712D1B2EBF2FF12D1A2EAE2FE12D0895A1
:00000001FF
