:080000000C94B0010C94000007
:100008000C9400000C9400000C9400000C94000068
:100018000C9400000C9400000C9400000C94000058
:100028000C9400000C948B020C9400000C940000BB
:100038000C9400000C9400000C9400000C94000038
:100048000C9400000C9400000C9400000C94D40252
:100058000C9400000C9400000C9400000C94000018
:1000680000000000C6F28E3C7BDC0E3D0513563DB9
:1000780065838E3DD4D0B13DCDE6D43D60BAF73D21
:1000880057200D3E7A371E3E441D2F3E6FCC3F3E13
:10009800C93F503E2F72603E945E703E0000803E25
:1000A800CAA8873E44278F3E1879963EFE9B9D3E00
:1000B800BB8DA43E254CAB3E22D5B13EA726B83E0B
:1000C800BD3EBE3E7D1BC43E13BBC93EBD1BCF3EDD
:1000D800CE3BD43EAE19D93ED7B3DD3EDA08E23E78
:1000E8005E17E63E1DDEE93EEC5BED3EB28FF03E6C
:1000F8007178F33E3F15F63E4D65F83EE267FA3EED
:100108005C1CFC3E3582FD3EFD98FE3E5C60FF3E79
:1001180014D8FF3E0000003F14D8FF3E5C60FF3E4D
:10012800FD98FE3E3582FD3E5C1CFC3EE267FA3ED1
:100138004D65F83E3F15F63E7178F33EB28FF03EBE
:10014800EC5BED3E1DDEE93E5E17E63EDA08E23E78
:10015800D7B3DD3EAE19D93ECE3BD43EBD1BCF3E14
:1001680013BBC93E7D1BC43EBD3EBE3EA726B83E5E
:1001780022D5B13E254CAB3EBB8DA43EFE9B9D3E99
:100188001879963E44278F3ECAA8873E0000803ED5
:10019800945E703E2F72603EC93F503E6FCC3F3E2A
:1001A800441D2F3E7A371E3E57200D3E60BAF73D5C
:1001B800CDE6D43DD4D0B13D65838E3D0513563D83
:1001C8007BDC0E3DC6F28E3C00000000C6F28EBC01
:1001D8007BDC0EBD051356BD65838EBDD4D0B1BD85
:1001E800CDE6D4BD60BAF7BD57200DBE7A371EBE26
:1001F800441D2FBE6FCC3FBEC93F50BE2F7260BE9C
:10020800945E70BE000080BECAA887BE44278FBE19
:10021800187996BEFE9B9DBEBB8DA4BE254CABBE79
:1002280022D5B1BEA726B8BEBD3EBEBE7D1BC4BE8C
:1002380013BBC9BEBD1BCFBECE3BD4BEAE19D9BE03
:10024800D7B3DDBEDA08E2BE5E17E6BE1DDEE9BE44
:10025800EC5BEDBEB28FF0BE7178F3BE3F15F6BE13
:100268004D65F8BEE267FABE5C1CFCBE3582FDBE79
:10027800FD98FEBE5C60FFBE14D8FFBE000000BF44
:1002880014D8FFBE5C60FFBEFD98FEBE3582FDBE81
:100298005C1CFCBEE267FABE4D65F8BE3F15F6BEB3
:1002A8007178F3BEB28FF0BEEC5BEDBE1DDEE9BE29
:1002B8005E17E6BEDA08E2BED7B3DDBEAE19D9BE18
:1002C800CE3BD4BEBD1BCFBE13BBC9BE7D1BC4BEB7
:1002D800BD3EBEBEA726B8BE22D5B1BE254CABBE1C
:1002E800BB8DA4BEFE9B9DBE187996BE44278FBECB
:1002F800CAA887BE000080BE945E70BE2F7260BE22
:10030800C93F50BE6FCC3FBE441D2FBE7A371EBEBC
:1003180057200DBE60BAF7BDCDE6D4BDD4D0B1BD6F
:1003280065838EBD00000000000000000000000092
:1003380000000000000000000000FF0000C80100ED
:100348002D4E414E00494E46000006000300400372
:100358000100BB0346030000F894EE27EFBBF1E071
:10036800F5BFE5BF8DE0A2E0BB27ED938A95E9F7DD
:1003780080E098E0A0E0B1E0ED930197E9F7E2E5CD
:10038800F3E085919591009761F0A591B59105905D
:100398001590BF01F00105900D920197E1F7FB015F
:1003A800F0CFE0E0EEBBEFEFEDBFE8E0EEBFC0E07E
:1003B800D3E00C941C03E0E0E4BDE5BDE7BDE8BD77
:1003C800E0938000E0938100E0938900E093880047
:1003D800E4E0E0936F00E0E0E093B000E093B10068
:1003E800E093B300E093B4000895E5DFE0E6EBB9ED
:1003F800E8E0E5B90895AA931A930A93EA81F0E030
:10040800ACE4B2E40E94C1048F0110938900E09328
:1004180088001981088123960895AA930E94DA0416
:1004280010E010E0153BF0F5EC81FF2766277727F1
:100438000E94C603AAE9B9E989E99FE30E94490431
:100448007F936F93FF93EF93E12FA8E6B0E0F0E07E
:100458000E94A304EA0FFB1F0E94D404AF91BF912E
:100468008F919F910E944904A0E0B0E08EEF92E442
:100478000E94F9030E948F039F012030E1E03E07AC
:100488002CF00E944B03AFEFA0830AC033232AF459
:100498000E944B03A0E0A08303C00E944B0320836B
:1004A8001F5FC0CF0E94DF0425960895AA93A981F3
:1004B800A2DFA881B2DFE0E0E0930203E093030348
:1004C800E0930403E1EAE4BDE1E0E5BDE0E0E6BD78
:1004D800E1E8E093B000E1E0E093B100E0E0E09310
:1004E800B200E0938000E9E0E0938100E0E0E0936F
:1004F8008500E0938400E0938700E0938600E09114
:100508006F00E260E0936F00789422960895AA93B2
:10051800EA93FA93EFB7EA93E0910203EF5FE0936F
:100528000203A0910203A53B18F0E0E0E093020368
:10053800E09102030E945003E7BDE8E73E1610F47D
:10054800339412C0E0910303EF5FE0930303A0919B
:100558000303A53B18F0E0E0E0930303E0910303F5
:100568000E945003E093B300ECE36E1610F463941A
:1005780011C0E0910403EF5FE0930403A09104032A
:10058800A53B18F0E0E0E0930403E09104030E9427
:100598005003E8BDE991EFBFF991E991A991189548
:1005A800AA93BA93EA93EFB7EA93A42DB0E0A050C8
:1005B800BD4FE0917900EC93E1E0E41511F4442497
:1005C80002C0E1E04E2EE42DE066E0937C00E0916D
:1005D8007A00E064E0937A00E991EFBFE991B9917C
:1005E800A9911895E0E8E0936100E0E0E0936100EC
:1005F800E0E8E0BFECE3E0937E00E0E6E0937C0017
:10060800EBEEE0937A00E5E0E0937B00E0916F0089
:10061800E460E0936F00EFEFE0938B00E0938A00D3
:10062800E0E6EAB9E8E0E4B98A92A52D3FDF08954B
:10063800D9DFA0910003A03021F0A0910103A030E0
:1006480081F4A0910003A03021F0A0910103A03013
:1006580011F4CBDEF6CF0E945503EA93A091000374
:1006680025DFE0910003E51521F050900003A52D4A
:10067800D4DE0E945503A82DB0E0EA17FB0729F045
:100688000E9455038E2EA82DB6DED3CFFFCFE12FC3
:10069800F0E0EB5FFC4F0895F0E0EB5FFC4FE0818A
:1006A8000895E0910103A8ECEA9FF001DF01EFEF64
:1006B800F0E00E94AE040895552342F4503811F436
:1006C800E0FF04C03196691F791F6BF050E8572787
:1006D80011F45F93C8C05F3F31F0660F000C579567
:1006E8006795752F08955F9300200AF0C8C0C1C0B0
:1006F80050E8192E1522880F991F9527550F8795B1
:1007080050E8072E0522660F771F7527550F679546
:100718000895689401C0E8945F93F2DF703818F088
:100728007F3F08F4A0C056E1571BAAF451955830F2
:100738000EF4593030F0EFEFFFEF6FEF7FE777F906
:100748001AC077275523B9F0EE0FFF1F661F771FD2
:100758005A95D1F710C07727583028F0EF2FF62F89
:10076800672F5850F9CF552331F076956795F7954F
:10077800E7955A95D1F700200AF4D9D05F910895EA
:10078800689401C0E894309760407040B1F000244C
:1007980026F0772312F40094CAD0172E7EE1112098
:1007A80032F07A95EE0FFF1F661F111CF9CFEF2F5D
:1007B800F62F612D5F938ADF5F9108954F93AF0104
:1007C800FD01DA01AB01BC01CA01402D012C142E38
:1007D8004F910895EA0FFB1F681F0895E095F09563
:1007E8006095EF5FFF4F6F4F08955F9381DF9038FB
:1007F80039F1703821F1572F591B2BF112F4DEDF34
:10080800FACF583118F0AA27BB278827583028F084
:10081800AB2FB82F88275850F9CF552329F0869544
:10082800B795A7955A95D9F7502D512572F0D2DF73
:1008380038F46795F795E795739513F420C0BEDFF4
:1008480045DF5F910895D8F7FBCFEA1BFB0B680BD8
:1008580051F010F40094C2DF662392F3EE0FFF1FED
:10086800661F7A95CBF7EE27FF27662777275F91D4
:100878000895EFEFFFEF6FE77FEF5F910895EFEFD8
:10088800FFEF6FE77FE75F9108955F9331DF70387F
:1008980051F3903841F301240894791F23F41CF391
:1008A80000203AF3ECCF0F921F932F933F934F936F
:1008B800112722279927689FA0018F9F302D410D6E
:1008C800591F6B9F300D411D591F8E9F27D0BF9F09
:1008D80025D06A9F23D0BE9F1DD0AF9F1BD0AE9F4F
:1008E800110D291F391F491F591FE32FF42F652F99
:1008F800522F4F913F912F911F910F9066232AF00D
:10090800550FEE1FFF1F661F02C073954BF2D4DE12
:100918005F910895100D211D391F02C0200D311D52
:10092800491F591F0895F195E195F0400895F095F4
:1009380060957095E195FF4F6F4F7F4F0895EE0FCB
:10094800FF1FEE0FFF1F0895FE2FFF0FFF0B6F2FE6
:100958007F2F08950024112490E1AA0FBB1F001CCB
:10096800111C0E1A1F0A18F40E0E1F1E01C0A160DA
:100978009A9599F7FD01D001089504D0EBDF0EF4A4
:10098800D2DF0895E894F7FF02C0CDDF6894B7FF7F
:1009980006C0A095B095119600F8039400FA089542
:1009A8000590159065917491F00108953A932A93F2
:1009B8001A930A9308953B812A8119810881089521
:00000001FF
