:0E0000000C94A7010C9400000C9400000C94CA
:10000E0000000C9400000C9400000C9400000C9462
:10001E0000000C9400000C9400000C9400000C9452
:10002E006F020C9400000C9400000C9400000C94D1
:10003E0000000C9400000C9400000C9400000C9432
:10004E0000000C9400000C941F030C9400000C9400
:10005E0000000C9400000C94000000000000295CCD
:10006E008F3C295C0F3DF4FD543D4DF38E3D0E2D1E
:10007E00B23D3D0AD73D23DBF93D04560E3E77BE19
:10008E001F3E0E2D323E8195433EF4FD543E666674
:10009E00663ED9CE773EA69B843EDF4F8D3E0681CF
:1000AE00953E3F359E3E79E9A63EA01AAF3EC74B20
:1000BE00B73E0000C03E2731C83E4E62D03E75931B
:1000CE00D83E8941E03EB072E83EC520F03EEC518C
:1000DE00F83E0000003F0AD7033F14AE073F1F85CE
:1000EE000B3FA01A0F3FAAF1123F2B87163FAC1CF5
:1000FE001A3F2DB21D3F2506213FA69B243F9EEFA2
:10010E00273F96432B3F8D972E3F85EB313FF4FDD6
:10011E00343F6210383FD1223B3F3F353E3FAE4722
:10012E00413F9318443F79E9463F5EBA493F448BBD
:10013E004C3FA01A4F3FFCA9513F5839543FB4C809
:10014E00563F8716593F5A645B3F2DB25D3F000004
:10015E00603F4A0C623F9318643FDD24663F9EEF7A
:10016E00673FE7FB693FA8C66B3FDF4F6D3FA01AA5
:10017E006F3FD7A3703F0E2D723FBC74733F6ABCA6
:10018E00743F1904763FC74B773FEC51783F1058B8
:10019E00793F355E7A3F5A647B3FF6287C3F91ED7E
:1001AE007C3FA4707D3F3F357E3F52B87E3FDBF9EA
:1001BE007E3FEE7C7F3F77BE7F3F77BE7F3F000066
:1001CE00803F0000803F0000803F77BE7F3F77BEBC
:1001DE007F3FEE7C7F3FDBF97E3F52B87E3F3F355F
:1001EE007E3FA4707D3F91ED7C3FF6287C3F5A64A4
:1001FE007B3F355E7A3F1058793FEC51783FC74BC5
:10020E00773F1904763F6ABC743FBC74733F0E2D62
:10021E00723FD7A3703FA01A6F3FDF4F6D3FA8C646
:10022E006B3FE7FB693F9EEF673FDD24663F931808
:10023E00643F4A0C623F0000603F2DB25D3F5A643E
:10024E005B3F8716593FB4C8563F5839543FFCA9F7
:10025E00513FA01A4F3F448B4C3F5EBA493F79E95C
:10026E00463F9318443FAE47413F3F353E3FD12274
:10027E003B3F6210383FF4FD343F85EB313F8D97A5
:10028E002E3F96432B3F9EEF273FA69B243F2506EE
:10029E00213F2DB21D3FAC1C1A3F2B87163FAAF1F2
:1002AE00123FA01A0F3F1F850B3F14AE073F0AD710
:1002BE00033F0000003FEC51F83EC520F03EB07207
:1002CE00E83E8941E03E7593D83E4E62D03E2731DE
:1002DE00C83E0000C03EC74BB73EA01AAF3E79E9FC
:1002EE00A63E3F359E3E0681953EDF4F8D3EA69B38
:1002FE00843ED9CE773E6666663EF4FD543E8195C9
:10030E00433E0E2D323E77BE1F3E04560E3E23DB7D
:10031E00F93D3D0AD73D0E2DB23D4DF38E3DF4FD18
:10032E00543D295C0F3D295C8F3C0000000000000D
:10033E0000000000FF006400060003004003000000
:10034E00F894EE27EFBBF1E0F5BFE5BF8DE0A2E03C
:10035E00BB27ED938A95E9F780E098E0A0E0B1E045
:10036E00ED930197E9F7E6E4F3E085919591009717
:10037E0061F0A591B59105901590BF01F001059022
:10038E000D920197E1F7FB01F0CFE0E0EEBBEFEF4E
:10039E00EDBFE8E0EEBFC0E0D3E00C946303E0E015
:1003AE00E4BDE5BDE7BDE8BDE0938000E0938100CC
:1003BE00E0938900E0938800E0936F00E093B00033
:1003CE00E093B100E093B300E093B4000895E7DF4B
:1003DE00E0E6EBB9E8EEE5B90895BA93AA931A935D
:1003EE000A93EA81FB81A8E6B0E80E94A9048F0176
:1003FE0010938900E093880019810881249608954E
:10040E00AA931A9310E010E0153B00F5E12FF0E0EF
:10041E00E55FFC4FFF93EF9389819927E12FA8E6C3
:10042E00B0E0F0E00E949504EA0FFB1F0E94CF049B
:10043E00DC010E949A040E94D7040E943B04AF91F3
:10044E00BF910E94D403EC931F5FDECF18812296DA
:10045E000895AA93E1E0E0930203E0E0E093030342
:10046E00E1E0E0930403E0E0E0930503E09306038C
:10047E00E0930703E0930803E0930903E0930A0374
:10048E00E1EAE4BDE1E0E5BDE0E0E6BDE1E8E093F0
:10049E00B000E1E0E093B100E0E0E093B200E09361
:1004AE008000E9E0E0938100E0E0E0938500E093D6
:1004BE008400E0938700E0938600E6E0E0936F000F
:1004CE007894A981BA8189DFA8819ADF239608954D
:1004DE000A921A926A93AA93BA93EA93FA93EFB78F
:1004EE00EA93A0910803A63B48F0A0910203E1E035
:1004FE00EA27E0930203E0E0E0930803A0910803EB
:10050E00A03011F0A53B31F4A0910503E1E0EA27FC
:10051E00E0930503E0910803EF5FE0930803F9D041
:10052E00A0910203EA02F001E7BDECE33E1610F4DF
:10053E00339423C0A0910903A63B30F0E3E0F3E02F
:10054E00EDD0E0E0E0930903A0910903A03021F083
:10055E00A0910903A53B19F4E6E0F3E0DFD0E091AA
:10056E000903EF5FE0930903A0910303E0910903F0
:10057E00D0D0EA02F001E093B300E8E76E1610F473
:10058E00639422C0A0910A03A63B30F0E4E0F3E0AE
:10059E00C5D0E0E0E0930A03A0910A03A03021F059
:1005AE00A0910A03A53B19F4E7E0F3E0B7D0E09180
:1005BE000A03EF5FE0930A03A0910403E0910A039C
:1005CE00A8D0EA02F001E8BDE09102030E949F0468
:1005DE00A0910503EA02F001E295E07FEE0F6E2F87
:1005EE00E0910303F0E00E94A404AE2FE091060315
:1005FE00EA02F001E295E07FEE0FEE0F6E2BE09136
:10060E000403F0E00E94A404AE2FE0910703EA0277
:10061E00F001E795E0E0E795E62BE5B9E991EFBF4C
:10062E00F991E991B991A99169911990099018954B
:10063E00AA93BA93EA93EFB7EA93A42DB0E0A05031
:10064E00BD4FE0917900EC93E1E0E41511F4442400
:10065E0002C0E1E04E2EE42DE066E0937C00E091D6
:10066E007A00E064E0937A00E991EFBFE991B991E5
:10067E00A9911895E0E8E0936100E0E0E093610055
:10068E00E0E8E0BFECE3E0937E00E0E6E0937C0080
:10069E00EBEEE0937A00E5E0E0937B00EFEFE09382
:1006AE008B00E0938A00E0E6EAB9E8EEE4B98A92BC
:1006BE007A92A52DCEDE0895DDDFA0910003A03045
:1006CE0021F0A0910103A03081F4A0910003A0308D
:1006DE0021F0A0910103A03011F479DEF6CF25D0E0
:1006EE00FA93EA93A0910003B4DEE0910003E515BE
:1006FE0021F050900003A52D83DE17D0E715F805E5
:10070E0031F013D07E2E8F2EA72DB82D66DED5CFCD
:10071E00FFCFF0E0E55FFC4FE08108950F01A0816F
:10072E00E1E0EA27D001EC930895E0910103A4E6FD
:10073E00EA9FF001DF01EFEFF0E00E94BC040895A4
:10074E00552342F4503811F4E0FF04C03196691F6E
:10075E00791F6BF050E8572711F45F9373C05F3F1A
:10076E0031F0660F000C57956795752F08955F93BE
:10077E0000200AF073C06CC050E8192E1522880FA5
:10078E00991F9527550F879550E8072E0522660F5E
:10079E00771F7527550F67950895689401C0E894E3
:1007AE005F93F2DF703818F07F3F08F44BC056E1CC
:1007BE00571BAAF4519558300EF4593030F0EFEF24
:1007CE00FFEF6FEF7FE777F91AC077275523B9F060
:1007DE00EE0FFF1F661F771F5A95D1F710C07727B0
:1007EE00583028F0EF2FF62F672F5850F9CF55239A
:1007FE0031F076956795F795E7955A95D1F70020E4
:10080E000AF484D05F910895689401C0E8943097FB
:10081E0060407040B1F0002426F0772312F400946B
:10082E0075D0172E7EE1112032F07A95EE0FFF1F54
:10083E00661F111CF9CFEF2FF62F612D5F938ADF04
:10084E005F910895EE27FF27662777275F9108951A
:10085E00EFEFFFEF6FE77FEF5F910895EFEFFFEFA1
:10086E006FE77FE75F9108955F9386DF703851F3EE
:10087E00903841F301240894791F23F41CF30020CF
:10088E003AF3ECCF0F921F932F933F934F93112771
:10089E0022279927689FA0018F9F302D410D591F48
:1008AE006B9F300D411D591F8E9F27D0BF9F25D0A6
:1008BE006A9F23D0BE9F1DD0AF9F1BD0AE9F110D40
:1008CE00291F391F491F591FE32FF42F652F522F50
:1008DE004F913F912F911F910F9066232AF0550F44
:1008EE00EE1FFF1F661F02C073954BF229DF5F914B
:1008FE000895100D211D391F02C0200D311D491FF5
:10090E00591F0895F195E195F0400895F095609581
:10091E007095E195FF4F6F4F7F4F0895EE0FFF1FBC
:10092E00EE0FFF1F08958B2F880F880B982F0895B9
:10093E00EE23E1E009F0EE270895EF2BE1E009F058
:10094E00E0E008950024112490E1AA0FBB1F001CC3
:10095E00111C0E1A1F0A18F40E0E1F1E01C0A160E4
:10096E009A9599F7FD01D001089504D0EBDF0EF4AE
:10097E00C9DF0895E894F7FF02C0C4DF6894B7FF9B
:10098E0006C0A095B095119600F8039400FA08954C
:10099E000590159065917491F0010895689401C0C9
:1009AE00E89401D034DF182E862F612D192E972F43
:1009BE00712D1B2EBF2FF12D1A2EAE2FE12D089566
:00000001FF
