S0180000636F6E646974696F6E5F74696E795F632E7372656360
S113000009C047C020C01FC01EC01DC01CC01BC0EB
S11300101AC019C011241FBECFE9CDBF10E0A0E65D
S1130020B0E0E6E9F2E002C005900D92A636B10711
S1130030D9F720E0A6E6B0E001C01D92A736B207CA
S1130040E1F786D026C1DCCF1F93CF93DF93C82F6F
S1130050D3D06CEC8C2FF8D064E48C2FF5D08C2F9B
S1130060CBD06CEC8C2FF0D06EEB8C2FEDD08C2F92
S11300700DD1182F8C2F0AD1D82F8C2FBDD01295CB
S11300801F70D077812F8D2B90E0DF91CF911F913E
S113009008951F920F920FB60F9211248F9380919F
S11300A066008F5F809366008F910F900FBE0F9054
S11300B01F90189527B381E090E002C0880F991F24
S11300C06A95E2F7822B87BB0895F894B99883E088
S11300D085BF80E48BBF8ABF7894089528B381E0FC
S11300E090E002C0880F991F6A95E2F7822B88BBC3
S11300F0089528B381E090E002C0880F991F6A95A3
S1130100E2F78095822388BB089580916600841766
S113011018F4842FE3DF089580916600871718F49C
S1130120842FE7DF089510926600089560916200BD
S11301307091630080916400BDDFC7DFBC98C498F0
S1130140609162007091630080916400C7DF08953C
S1130150EDDFB49B08C060916200709163008091F0
S11301606400BCDFF6CF82E06FDF90936100809380
S113017060008F3091054CF46091620070916300CF
S11301808091640042E0C1DFE4CF843191054CF4F6
S113019060916200709163008091640043E0B5DF78
S11301A0D8CF893191054CF460916200709163005D
S11301B08091640044E0A9DFCCCF8E3191054CF4EA
S11301C060916200709163008091640046E09DDF5D
S11301D0C0CF83974CF4609162007091630080916A
S11301E0640048E092DFB5CF6091620070916300D3
S11301F08091640073DFADCF98B3382F309593238B
S113020098BB97B3932397BB96B3982321F008C068
S1130210215011F417C02FE7000096B39823C1F3BF
S113022097B3982B97BB90EA9A95F1F797B3392334
S113023037BB96E19A95F1F796B389239AE89A9594
S1130240F1F7089582E0089538E0582F50954FB79C
S1130250F89497B3982B97BB000060FF03C097B343
S1130260952397BB24E02A95F1F700C096B32FE0BD
S11302702A95F1F727B3252327BB4FBF669598230B
S113028009F06068315019F7862F08956FEFDCDFAD
S10902900895F894FFCF6D
S10902961900000A0A0031
S9030000FC
