:040000000C947600E6
:100004000C9400000C9400000C9400000C9400006C
:100014000C9400000C9400000C9400000C9400005C
:100024000C9400000C9400000C9400000C9400004C
:100034000C9400000C9400000C9400000C9400003C
:100044000C9400000C9400000C9400000C9400002C
:100054000C9400000C9400000C9400000C9400001C
:100064000C9400001027E80364000A00010000104B
:1000740000011000010088008F0096009E00A80077
:10008400B100B80053756E646179004D6F6E6461A0
:10009400790054756573646179005765646E65739E
:1000A4006461790054687572736461790046726999
:1000B400646179005361747572646179002530322A
:1000C400755C253032755C253032752025700D0045
:1000D400253032753A253032753A253032750D00A7
:1000E4000E0000037A000000F894EE27EFBBF1E065
:1000F400F5BFE5BF8DE0A2E0BB27ED938A95E9F754
:1001040080E098E0A0E0B1E0ED930197E9F7E4EE38
:10011400F0E085919591009761F0A591B5910590D6
:100124001590BF01F00105900D920197E1F7FB01D5
:10013400F0CFE0E0EEBBEFEFEDBFE8E0EEBFC0E0F4
:10014400D3E00C94B500E0E0E093C000E8E0E09375
:10015400C100E6E0E093C200E0E0E093C500E7E61A
:10016400E093C4000895249713E001E030E0E0E850
:10017400E0936100E0E0E0936100E0E8E0BFE0E0EC
:10018400E0937A00E0DF0E949C031A930A93A32F62
:1001940063D0E6E0EA93E4E1EA93ECE0EA93A8E1D1
:1001A400B4D0E0E1EA93E1E0EA93AEE186D0EDB7C2
:1001B400FEB7FA93EA932F93EDB7FEB7FA93EA9357
:1001C4005F93EDB7FEB7FA93EA934F93DE01199666
:1001D40081D04F915F912F91E1ECF0E0FA93EA9393
:1001E400E52F0E943803E42F0E943803ED850E9416
:1001F4003803E22FF0E03197A0E0B3E0EE0FFF1FE9
:10020400AE0FBF1F0E94FF03662777270E940704D3
:1002140080E1D7D16296FE013296FA93EA93FE0109
:100224003396FA93EA93DE0114962FD0E4EDF0E0CE
:10023400FA93EA93EC810E943803EF810E94380319
:10024400EA850E9438038CE0BCD12E96A8EEB3E078
:100254000E94ED03ACCFFFCFAA93EA81E370EA8357
:10026400E981E03019F0EA81E061EA83E881E03075
:1002740019F0EA81E068EA830E943E03A7E00E9445
:10028400D503AA810E94430366C0BA93AA930E942D
:100294003E03A0E00E9443030E9447030E944F03D1
:1002A4000E9456030E945C03AE2FB0D1AC81BD8185
:1002B400EC930E94B00326960895AA930E943E03ED
:1002C400A0E00E9462030E9469030E9470030E94DE
:1002D400430341C0BA93AA930E943E03A3E00E9441
:1002E40043030E944703AE81BF81EC930E945603EF
:1002F400AC81BD81EC930E9456030E945C030E9472
:100304004F030E94B00328960895AA930E943E03C7
:10031400A3E00E94D503AB810E9470030E9469038D
:100324000E9462030E94430324960895AA93E091D5
:10033400C000E072E1F3E881E093C60021960895DD
:10034400BA93AA93AA81F2DFA881B981ED91FD91B4
:100354003196FE93EE9323960895BA93AA93269723
:100364000E940C0410E0AC85BD85E0E0F0E0ED9364
:10037400FC93EA89FB893196EA8BFB8B3197E491F4
:100384002E2FE03009F415C1E12FE03039F4253285
:1003940011F411E002C00E9477030AC1E130A9F40C
:1003A400253219F40E94770302C112E040E000E014
:1003B4002D3211F401E0FCC02B3211F44BE2F8C0F1
:1003C400203211F440E2F4C002C0E23039F450E0CB
:1003D40013E0203311F40068EBC003C0E33009F0EC
:1003E400E7C0203310F02A3308F007C0AAE05A9F70
:1003F400502DE22FE0535E0FDBC0E22FE33649F4C9
:100404000E947E03E889F989A481AA930E94840347
:10041400CEC0E33741F40E947E030E948A030E9407
:100424001F031E2F0AC0E03761F40E947E030E945E
:100434008A030E942B031E2F086002600F7730E0AE
:1004440034C0E43611F0E93611F4046002C0E53733
:1004540031F4E8E6F0E0EE83FF8315E00CC0E83504
:1004640011F4086003C0E83709F0A1C0E2E7F0E046
:10047400EE83FF8314E002FF14C00E947E030E94F7
:100484009403AB85AA233AF4EA85FB850E94FB0317
:10049400EA87FB874DE2403011F01F5F01C00B7FFC
:1004A40004C00E947E030E94940300FD11C015172E
:1004B40078F407FF08C002FF04C00B7F242F1150FB
:1004C40001C020E301C020E20E9477035150EFCF26
:1004D400312F01FF17C03030A1F003FF06C0EE81B9
:1004E400FF812591EE83FF8305C0AE81BF812D91ED
:1004F400AE83BF830E947703503009F051503150CE
:10050400EACF4BC020E3EE81FF810E940304E88719
:10051400F987EE81FF813296EE83FF83E885F985C2
:10052400AA85BB85AE17BF0750F02F5FA885B98594
:10053400EA85FB85EA1BFB0BEA87FB87EFCF2A33AF
:1005440028F003FF02C0295F01C0295D04FD1AC021
:10055400213320F4A885B985119709F409C05317EC
:1005640010F000FF01C013C020E207FF0BC020E31E
:10057400006102FF07C00B7F4A930E94840350303E
:1005840009F051500E947703503009F05150315016
:10059400A885B985129708F0B5CF00FF08C0503080
:1005A40031F05150E0E2EA930E948403F8CF10E066
:1005B400E0CEAC85BD850E94FF030E9413046496BF
:1005C4000895FF92F82E26971A930A93DE01149643
:1005D4000E94F7038D01E0E0EC83ED83EE83EF836B
:1005E400DE0118960E94F7030E94FF03FA93EA9330
:1005F4001A930A93E2EAF1E0FA93EA93DE01189679
:10060400ACDE198108812896FF900895AA93E881A9
:10061400E295EF70AE2FAA0FAA0FEA0FEE0FA99181
:10062400AF70EA0F0895AA93A991EE27AA5012F089
:10063400E05FFCCFA65FEA0F0895BA93AA93A9914D
:10064400B991EE27FF276D91662311F03196FBCF08
:100654000895BA93AA93AA27BB27E991F991059023
:10066400002011F01196FBCFFD010895FF276627A6
:1006740077270E94070408950E94A103A0ED0C941B
:10068400D5030E94D5030C94B0030E94A103A1EDED
:100694000E94D503A1E00C94BA03AE2F0E94080374
:1006A400A881B981EC930895A1E00E94BA03AE2F0A
:1006B4000C940803AA81BB81EC93A0E00C94BA03C8
:1006C4000E94D503A8810E941503AE2F08950E94AD
:1006D400D503A9810E941503AE2F08950E94D50366
:1006E400AA810E941503AE2F08952A93AD85BE8575
:1006F400EF85F88909950895E889F9893497E88B95
:10070400F98B0895AD85BE85EF85F889099508951F
:10071400A889B98914960E94FF03EE83FF83AE81F2
:10072400BF810895A889B98914960E94FF03EA87B6
:10073400FB870895459844983D9A3C9815C03C9889
:100744003D98EE270000349B0895359B089504D00E
:100754003C9A02D03D9AE1E06BE107C03C9A3D9A95
:1007640003D03D98F9DF3C9865E36A95F1F7089565
:1007740078E03D98F1DF359BFECFEEDF8894349925
:1007840008943D9AF1DFEE1F7A9599F77A2F772333
:1007940011F43C9801C03C9ADFDF3D98E5DF3D9AB7
:1007A400DBDF3C98D9CF78E0AA0F10F43C9801C065
:1007B4003C9ADADF3D98D0DF359BFECFCDDF3D9A02
:1007C4007A9591F73C98C8DF3D98CEDFE1E0349903
:1007D400EE273D9AC1CF109639F080EA9FE0019749
:1007E400F1F7A8951197C9F708950024AF0DB01D2E
:1007F4000895F195E195F0400895ED91FC911197DC
:1008040008950590F491E02D08957A936A93FA93EC
:10081400EA9308955A934A933A932A931A930A931C
:1008240008955D814C813B812A8119810881089555
:00000001FF
